{
  "_format": "hh-sol-artifact-1",
  "contractName": "SecureDocsNFT",
  "sourceName": "contracts/SecureDocsNFT.sol",
  "abi": [
    {
      "inputs": [
        {
          "internalType": "address",
          "name": "initialOwner",
          "type": "address"
        }
      ],
      "stateMutability": "nonpayable",
      "type": "constructor"
    },
    {
      "inputs": [
        {
          "internalType": "address",
          "name": "sender",
          "type": "address"
        },
        {
          "internalType": "uint256",
          "name": "tokenId",
          "type": "uint256"
        },
        {
          "internalType": "address",
          "name": "owner",
          "type": "address"
        }
      ],
      "name": "ERC721IncorrectOwner",
      "type": "error"
    },
    {
      "inputs": [
        {
          "internalType": "address",
          "name": "operator",
          "type": "address"
        },
        {
          "internalType": "uint256",
          "name": "tokenId",
          "type": "uint256"
        }
      ],
      "name": "ERC721InsufficientApproval",
      "type": "error"
    },
    {
      "inputs": [
        {
          "internalType": "address",
          "name": "approver",
          "type": "address"
        }
      ],
      "name": "ERC721InvalidApprover",
      "type": "error"
    },
    {
      "inputs": [
        {
          "internalType": "address",
          "name": "operator",
          "type": "address"
        }
      ],
      "name": "ERC721InvalidOperator",
      "type": "error"
    },
    {
      "inputs": [
        {
          "internalType": "address",
          "name": "owner",
          "type": "address"
        }
      ],
      "name": "ERC721InvalidOwner",
      "type": "error"
    },
    {
      "inputs": [
        {
          "internalType": "address",
          "name": "receiver",
          "type": "address"
        }
      ],
      "name": "ERC721InvalidReceiver",
      "type": "error"
    },
    {
      "inputs": [
        {
          "internalType": "address",
          "name": "sender",
          "type": "address"
        }
      ],
      "name": "ERC721InvalidSender",
      "type": "error"
    },
    {
      "inputs": [
        {
          "internalType": "uint256",
          "name": "tokenId",
          "type": "uint256"
        }
      ],
      "name": "ERC721NonexistentToken",
      "type": "error"
    },
    {
      "inputs": [
        {
          "internalType": "address",
          "name": "owner",
          "type": "address"
        }
      ],
      "name": "OwnableInvalidOwner",
      "type": "error"
    },
    {
      "inputs": [
        {
          "internalType": "address",
          "name": "account",
          "type": "address"
        }
      ],
      "name": "OwnableUnauthorizedAccount",
      "type": "error"
    },
    {
      "anonymous": false,
      "inputs": [
        {
          "indexed": true,
          "internalType": "address",
          "name": "owner",
          "type": "address"
        },
        {
          "indexed": true,
          "internalType": "address",
          "name": "approved",
          "type": "address"
        },
        {
          "indexed": true,
          "internalType": "uint256",
          "name": "tokenId",
          "type": "uint256"
        }
      ],
      "name": "Approval",
      "type": "event"
    },
    {
      "anonymous": false,
      "inputs": [
        {
          "indexed": true,
          "internalType": "address",
          "name": "owner",
          "type": "address"
        },
        {
          "indexed": true,
          "internalType": "address",
          "name": "operator",
          "type": "address"
        },
        {
          "indexed": false,
          "internalType": "bool",
          "name": "approved",
          "type": "bool"
        }
      ],
      "name": "ApprovalForAll",
      "type": "event"
    },
    {
      "anonymous": false,
      "inputs": [
        {
          "indexed": true,
          "internalType": "uint256",
          "name": "tokenId",
          "type": "uint256"
        },
        {
          "indexed": true,
          "internalType": "address",
          "name": "notary",
          "type": "address"
        },
        {
          "indexed": true,
          "internalType": "address",
          "name": "user",
          "type": "address"
        },
        {
          "indexed": false,
          "internalType": "string",
          "name": "documentHash",
          "type": "string"
        }
      ],
      "name": "DocumentVerified",
      "type": "event"
    },
    {
      "anonymous": false,
      "inputs": [
        {
          "indexed": true,
          "internalType": "address",
          "name": "notary",
          "type": "address"
        }
      ],
      "name": "NotaryAdded",
      "type": "event"
    },
    {
      "anonymous": false,
      "inputs": [
        {
          "indexed": true,
          "internalType": "address",
          "name": "notary",
          "type": "address"
        }
      ],
      "name": "NotaryRemoved",
      "type": "event"
    },
    {
      "anonymous": false,
      "inputs": [
        {
          "indexed": true,
          "internalType": "address",
          "name": "previousOwner",
          "type": "address"
        },
        {
          "indexed": true,
          "internalType": "address",
          "name": "newOwner",
          "type": "address"
        }
      ],
      "name": "OwnershipTransferred",
      "type": "event"
    },
    {
      "anonymous": false,
      "inputs": [
        {
          "indexed": true,
          "internalType": "address",
          "name": "from",
          "type": "address"
        },
        {
          "indexed": true,
          "internalType": "address",
          "name": "to",
          "type": "address"
        },
        {
          "indexed": true,
          "internalType": "uint256",
          "name": "tokenId",
          "type": "uint256"
        }
      ],
      "name": "Transfer",
      "type": "event"
    },
    {
      "inputs": [
        {
          "internalType": "address",
          "name": "notary",
          "type": "address"
        }
      ],
      "name": "addNotary",
      "outputs": [],
      "stateMutability": "nonpayable",
      "type": "function"
    },
    {
      "inputs": [
        {
          "internalType": "address",
          "name": "to",
          "type": "address"
        },
        {
          "internalType": "uint256",
          "name": "tokenId",
          "type": "uint256"
        }
      ],
      "name": "approve",
      "outputs": [],
      "stateMutability": "nonpayable",
      "type": "function"
    },
    {
      "inputs": [
        {
          "internalType": "address",
          "name": "owner",
          "type": "address"
        }
      ],
      "name": "balanceOf",
      "outputs": [
        {
          "internalType": "uint256",
          "name": "",
          "type": "uint256"
        }
      ],
      "stateMutability": "view",
      "type": "function"
    },
    {
      "inputs": [
        {
          "internalType": "uint256",
          "name": "",
          "type": "uint256"
        }
      ],
      "name": "documents",
      "outputs": [
        {
          "internalType": "address",
          "name": "notary",
          "type": "address"
        },
        {
          "internalType": "address",
          "name": "user",
          "type": "address"
        },
        {
          "internalType": "string",
          "name": "documentHash",
          "type": "string"
        },
        {
          "internalType": "bool",
          "name": "isVerified",
          "type": "bool"
        }
      ],
      "stateMutability": "view",
      "type": "function"
    },
    {
      "inputs": [
        {
          "internalType": "uint256",
          "name": "tokenId",
          "type": "uint256"
        }
      ],
      "name": "getApproved",
      "outputs": [
        {
          "internalType": "address",
          "name": "",
          "type": "address"
        }
      ],
      "stateMutability": "view",
      "type": "function"
    },
    {
      "inputs": [
        {
          "internalType": "address",
          "name": "owner",
          "type": "address"
        },
        {
          "internalType": "address",
          "name": "operator",
          "type": "address"
        }
      ],
      "name": "isApprovedForAll",
      "outputs": [
        {
          "internalType": "bool",
          "name": "",
          "type": "bool"
        }
      ],
      "stateMutability": "view",
      "type": "function"
    },
    {
      "inputs": [],
      "name": "name",
      "outputs": [
        {
          "internalType": "string",
          "name": "",
          "type": "string"
        }
      ],
      "stateMutability": "view",
      "type": "function"
    },
    {
      "inputs": [
        {
          "internalType": "address",
          "name": "",
          "type": "address"
        }
      ],
      "name": "notaryWhitelist",
      "outputs": [
        {
          "internalType": "bool",
          "name": "",
          "type": "bool"
        }
      ],
      "stateMutability": "view",
      "type": "function"
    },
    {
      "inputs": [],
      "name": "owner",
      "outputs": [
        {
          "internalType": "address",
          "name": "",
          "type": "address"
        }
      ],
      "stateMutability": "view",
      "type": "function"
    },
    {
      "inputs": [
        {
          "internalType": "uint256",
          "name": "tokenId",
          "type": "uint256"
        }
      ],
      "name": "ownerOf",
      "outputs": [
        {
          "internalType": "address",
          "name": "",
          "type": "address"
        }
      ],
      "stateMutability": "view",
      "type": "function"
    },
    {
      "inputs": [
        {
          "internalType": "address",
          "name": "notary",
          "type": "address"
        }
      ],
      "name": "removeNotary",
      "outputs": [],
      "stateMutability": "nonpayable",
      "type": "function"
    },
    {
      "inputs": [],
      "name": "renounceOwnership",
      "outputs": [],
      "stateMutability": "nonpayable",
      "type": "function"
    },
    {
      "inputs": [
        {
          "internalType": "address",
          "name": "from",
          "type": "address"
        },
        {
          "internalType": "address",
          "name": "to",
          "type": "address"
        },
        {
          "internalType": "uint256",
          "name": "tokenId",
          "type": "uint256"
        }
      ],
      "name": "safeTransferFrom",
      "outputs": [],
      "stateMutability": "nonpayable",
      "type": "function"
    },
    {
      "inputs": [
        {
          "internalType": "address",
          "name": "from",
          "type": "address"
        },
        {
          "internalType": "address",
          "name": "to",
          "type": "address"
        },
        {
          "internalType": "uint256",
          "name": "tokenId",
          "type": "uint256"
        },
        {
          "internalType": "bytes",
          "name": "data",
          "type": "bytes"
        }
      ],
      "name": "safeTransferFrom",
      "outputs": [],
      "stateMutability": "nonpayable",
      "type": "function"
    },
    {
      "inputs": [
        {
          "internalType": "address",
          "name": "operator",
          "type": "address"
        },
        {
          "internalType": "bool",
          "name": "approved",
          "type": "bool"
        }
      ],
      "name": "setApprovalForAll",
      "outputs": [],
      "stateMutability": "nonpayable",
      "type": "function"
    },
    {
      "inputs": [
        {
          "internalType": "bytes4",
          "name": "interfaceId",
          "type": "bytes4"
        }
      ],
      "name": "supportsInterface",
      "outputs": [
        {
          "internalType": "bool",
          "name": "",
          "type": "bool"
        }
      ],
      "stateMutability": "view",
      "type": "function"
    },
    {
      "inputs": [],
      "name": "symbol",
      "outputs": [
        {
          "internalType": "string",
          "name": "",
          "type": "string"
        }
      ],
      "stateMutability": "view",
      "type": "function"
    },
    {
      "inputs": [],
      "name": "tokenCounter",
      "outputs": [
        {
          "internalType": "uint256",
          "name": "",
          "type": "uint256"
        }
      ],
      "stateMutability": "view",
      "type": "function"
    },
    {
      "inputs": [
        {
          "internalType": "uint256",
          "name": "tokenId",
          "type": "uint256"
        }
      ],
      "name": "tokenURI",
      "outputs": [
        {
          "internalType": "string",
          "name": "",
          "type": "string"
        }
      ],
      "stateMutability": "view",
      "type": "function"
    },
    {
      "inputs": [
        {
          "internalType": "address",
          "name": "from",
          "type": "address"
        },
        {
          "internalType": "address",
          "name": "to",
          "type": "address"
        },
        {
          "internalType": "uint256",
          "name": "tokenId",
          "type": "uint256"
        }
      ],
      "name": "transferFrom",
      "outputs": [],
      "stateMutability": "nonpayable",
      "type": "function"
    },
    {
      "inputs": [
        {
          "internalType": "address",
          "name": "newOwner",
          "type": "address"
        }
      ],
      "name": "transferOwnership",
      "outputs": [],
      "stateMutability": "nonpayable",
      "type": "function"
    },
    {
      "inputs": [
        {
          "internalType": "address",
          "name": "user",
          "type": "address"
        },
        {
          "internalType": "string",
          "name": "documentHash",
          "type": "string"
        }
      ],
      "name": "verifyDocument",
      "outputs": [
        {
          "internalType": "uint256",
          "name": "",
          "type": "uint256"
        }
      ],
      "stateMutability": "nonpayable",
      "type": "function"
    }
  ],
  "bytecode": "0x60806040523480156200001157600080fd5b506040516200314738038062003147833981810160405281019062000037919062000290565b806040518060400160405280600d81526020017f536563757265446f63734e4654000000000000000000000000000000000000008152506040518060400160405280600581526020017f53444e46540000000000000000000000000000000000000000000000000000008152508160009081620000b591906200053c565b508060019081620000c791906200053c565b505050600073ffffffffffffffffffffffffffffffffffffffff168173ffffffffffffffffffffffffffffffffffffffff16036200013f5760006040517f1e4fbdf700000000000000000000000000000000000000000000000000000000815260040162000136919062000634565b60405180910390fd5b62000150816200016060201b60201c565b5060006007819055505062000651565b6000600660009054906101000a900473ffffffffffffffffffffffffffffffffffffffff16905081600660006101000a81548173ffffffffffffffffffffffffffffffffffffffff021916908373ffffffffffffffffffffffffffffffffffffffff1602179055508173ffffffffffffffffffffffffffffffffffffffff168173ffffffffffffffffffffffffffffffffffffffff167f8be0079c531659141344cd1fd0a4f28419497f9722a3daafe3b4186f6b6457e060405160405180910390a35050565b600080fd5b600073ffffffffffffffffffffffffffffffffffffffff82169050919050565b600062000258826200022b565b9050919050565b6200026a816200024b565b81146200027657600080fd5b50565b6000815190506200028a816200025f565b92915050565b600060208284031215620002a957620002a862000226565b5b6000620002b98482850162000279565b91505092915050565b600081519050919050565b7f4e487b7100000000000000000000000000000000000000000000000000000000600052604160045260246000fd5b7f4e487b7100000000000000000000000000000000000000000000000000000000600052602260045260246000fd5b600060028204905060018216806200034457607f821691505b6020821081036200035a5762000359620002fc565b5b50919050565b60008190508160005260206000209050919050565b60006020601f8301049050919050565b600082821b905092915050565b600060088302620003c47fffffffffffffffffffffffffffffffffffffffffffffffffffffffffffffffff8262000385565b620003d0868362000385565b95508019841693508086168417925050509392505050565b6000819050919050565b6000819050919050565b60006200041d620004176200041184620003e8565b620003f2565b620003e8565b9050919050565b6000819050919050565b6200043983620003fc565b62000451620004488262000424565b84845462000392565b825550505050565b600090565b6200046862000459565b620004758184846200042e565b505050565b5b818110156200049d57620004916000826200045e565b6001810190506200047b565b5050565b601f821115620004ec57620004b68162000360565b620004c18462000375565b81016020851015620004d1578190505b620004e9620004e08562000375565b8301826200047a565b50505b505050565b600082821c905092915050565b60006200051160001984600802620004f1565b1980831691505092915050565b60006200052c8383620004fe565b9150826002028217905092915050565b6200054782620002c2565b67ffffffffffffffff811115620005635762000562620002cd565b5b6200056f82546200032b565b6200057c828285620004a1565b600060209050601f831160018114620005b457600084156200059f578287015190505b620005ab85826200051e565b8655506200061b565b601f198416620005c48662000360565b60005b82811015620005ee57848901518255600182019150602085019450602081019050620005c7565b868310156200060e57848901516200060a601f891682620004fe565b8355505b6001600288020188555050505b505050505050565b6200062e816200024b565b82525050565b60006020820190506200064b600083018462000623565b92915050565b612ae680620006616000396000f3fe608060405234801561001057600080fd5b50600436106101425760003560e01c806386785a6f116100b8578063b88d4fde1161007c578063b88d4fde14610373578063c2ed2b051461038f578063c87b56dd146103c2578063d082e381146103f2578063e985e9c514610410578063f2fde38b1461044057610142565b806386785a6f146102cf5780638da5cb5b146102eb57806395d89b4114610309578063a22cb46514610327578063adce0eac1461034357610142565b806323b872dd1161010a57806323b872dd146101fd57806342842e0e146102195780636352211e14610235578063641ee9d51461026557806370a0823114610295578063715018a6146102c557610142565b806301ffc9a7146101475780630588565f1461017757806306fdde0314610193578063081812fc146101b1578063095ea7b3146101e1575b600080fd5b610161600480360381019061015c9190611e74565b61045c565b60405161016e9190611ebc565b60405180910390f35b610191600480360381019061018c9190611f35565b61053e565b005b61019b6105e4565b6040516101a89190611ff2565b60405180910390f35b6101cb60048036038101906101c6919061204a565b610676565b6040516101d89190612086565b60405180910390f35b6101fb60048036038101906101f691906120a1565b610692565b005b610217600480360381019061021291906120e1565b6106a8565b005b610233600480360381019061022e91906120e1565b6107aa565b005b61024f600480360381019061024a919061204a565b6107ca565b60405161025c9190612086565b60405180910390f35b61027f600480360381019061027a9190612269565b6107dc565b60405161028c91906122d4565b60405180910390f35b6102af60048036038101906102aa9190611f35565b610a2f565b6040516102bc91906122d4565b60405180910390f35b6102cd610ae9565b005b6102e960048036038101906102e49190611f35565b610afd565b005b6102f3610ba3565b6040516103009190612086565b60405180910390f35b610311610bcd565b60405161031e9190611ff2565b60405180910390f35b610341600480360381019061033c919061231b565b610c5f565b005b61035d60048036038101906103589190611f35565b610c75565b60405161036a9190611ebc565b60405180910390f35b61038d600480360381019061038891906123fc565b610c95565b005b6103a960048036038101906103a4919061204a565b610cb2565b6040516103b9949392919061247f565b60405180910390f35b6103dc60048036038101906103d7919061204a565b610db7565b6040516103e99190611ff2565b60405180910390f35b6103fa610e20565b60405161040791906122d4565b60405180910390f35b61042a600480360381019061042591906124cb565b610e26565b6040516104379190611ebc565b60405180910390f35b61045a60048036038101906104559190611f35565b610eba565b005b60007f80ac58cd000000000000000000000000000000000000000000000000000000007bffffffffffffffffffffffffffffffffffffffffffffffffffffffff1916827bffffffffffffffffffffffffffffffffffffffffffffffffffffffff1916148061052757507f5b5e139f000000000000000000000000000000000000000000000000000000007bffffffffffffffffffffffffffffffffffffffffffffffffffffffff1916827bffffffffffffffffffffffffffffffffffffffffffffffffffffffff1916145b80610537575061053682610f40565b5b9050919050565b610546610faa565b6001600960008373ffffffffffffffffffffffffffffffffffffffff1673ffffffffffffffffffffffffffffffffffffffff16815260200190815260200160002060006101000a81548160ff0219169083151502179055508073ffffffffffffffffffffffffffffffffffffffff167f6253272a17d8f3ecb1a7833b4d38d0e5261a75808cf7ebf287ba110e79f5c96760405160405180910390a250565b6060600080546105f39061253a565b80601f016020809104026020016040519081016040528092919081815260200182805461061f9061253a565b801561066c5780601f106106415761010080835404028352916020019161066c565b820191906000526020600020905b81548152906001019060200180831161064f57829003601f168201915b5050505050905090565b600061068182611031565b5061068b826110b9565b9050919050565b6106a4828261069f6110f6565b6110fe565b5050565b600073ffffffffffffffffffffffffffffffffffffffff168273ffffffffffffffffffffffffffffffffffffffff160361071a5760006040517f64a0ae920000000000000000000000000000000000000000000000000000000081526004016107119190612086565b60405180910390fd5b600061072e83836107296110f6565b611110565b90508373ffffffffffffffffffffffffffffffffffffffff168173ffffffffffffffffffffffffffffffffffffffff16146107a4578382826040517f64283d7b00000000000000000000000000000000000000000000000000000000815260040161079b9392919061256b565b60405180910390fd5b50505050565b6107c583838360405180602001604052806000815250610c95565b505050565b60006107d582611031565b9050919050565b6000600960003373ffffffffffffffffffffffffffffffffffffffff1673ffffffffffffffffffffffffffffffffffffffff16815260200190815260200160002060009054906101000a900460ff1661086a576040517f08c379a000000000000000000000000000000000000000000000000000000000815260040161086190612614565b60405180910390fd5b6000600754905061087b848261132a565b60405180608001604052803373ffffffffffffffffffffffffffffffffffffffff1681526020018573ffffffffffffffffffffffffffffffffffffffff168152602001848152602001600115158152506008600083815260200190815260200160002060008201518160000160006101000a81548173ffffffffffffffffffffffffffffffffffffffff021916908373ffffffffffffffffffffffffffffffffffffffff16021790555060208201518160010160006101000a81548173ffffffffffffffffffffffffffffffffffffffff021916908373ffffffffffffffffffffffffffffffffffffffff160217905550604082015181600201908161098191906127e0565b5060608201518160030160006101000a81548160ff0219169083151502179055509050508373ffffffffffffffffffffffffffffffffffffffff163373ffffffffffffffffffffffffffffffffffffffff16827f1e3f7464e22548baad4886677806829d4f778d9404c353ec24e9fca006f781ae86604051610a039190611ff2565b60405180910390a4600160076000828254610a1e91906128e1565b925050819055508091505092915050565b60008073ffffffffffffffffffffffffffffffffffffffff168273ffffffffffffffffffffffffffffffffffffffff1603610aa25760006040517f89c62b64000000000000000000000000000000000000000000000000000000008152600401610a999190612086565b60405180910390fd5b600360008373ffffffffffffffffffffffffffffffffffffffff1673ffffffffffffffffffffffffffffffffffffffff168152602001908152602001600020549050919050565b610af1610faa565b610afb6000611348565b565b610b05610faa565b6000600960008373ffffffffffffffffffffffffffffffffffffffff1673ffffffffffffffffffffffffffffffffffffffff16815260200190815260200160002060006101000a81548160ff0219169083151502179055508073ffffffffffffffffffffffffffffffffffffffff167f45cce36eb5ff15aa76102843427340e3e843a80b527a3b355f927fcff9ab840460405160405180910390a250565b6000600660009054906101000a900473ffffffffffffffffffffffffffffffffffffffff16905090565b606060018054610bdc9061253a565b80601f0160208091040260200160405190810160405280929190818152602001828054610c089061253a565b8015610c555780601f10610c2a57610100808354040283529160200191610c55565b820191906000526020600020905b815481529060010190602001808311610c3857829003601f168201915b5050505050905090565b610c71610c6a6110f6565b838361140e565b5050565b60096020528060005260406000206000915054906101000a900460ff1681565b610ca08484846106a8565b610cac8484848461157d565b50505050565b60086020528060005260406000206000915090508060000160009054906101000a900473ffffffffffffffffffffffffffffffffffffffff16908060010160009054906101000a900473ffffffffffffffffffffffffffffffffffffffff1690806002018054610d219061253a565b80601f0160208091040260200160405190810160405280929190818152602001828054610d4d9061253a565b8015610d9a5780601f10610d6f57610100808354040283529160200191610d9a565b820191906000526020600020905b815481529060010190602001808311610d7d57829003601f168201915b5050505050908060030160009054906101000a900460ff16905084565b6060610dc282611031565b506000610dcd611734565b90506000815111610ded5760405180602001604052806000815250610e18565b80610df78461174b565b604051602001610e08929190612951565b6040516020818303038152906040525b915050919050565b60075481565b6000600560008473ffffffffffffffffffffffffffffffffffffffff1673ffffffffffffffffffffffffffffffffffffffff16815260200190815260200160002060008373ffffffffffffffffffffffffffffffffffffffff1673ffffffffffffffffffffffffffffffffffffffff16815260200190815260200160002060009054906101000a900460ff16905092915050565b610ec2610faa565b600073ffffffffffffffffffffffffffffffffffffffff168173ffffffffffffffffffffffffffffffffffffffff1603610f345760006040517f1e4fbdf7000000000000000000000000000000000000000000000000000000008152600401610f2b9190612086565b60405180910390fd5b610f3d81611348565b50565b60007f01ffc9a7000000000000000000000000000000000000000000000000000000007bffffffffffffffffffffffffffffffffffffffffffffffffffffffff1916827bffffffffffffffffffffffffffffffffffffffffffffffffffffffff1916149050919050565b610fb26110f6565b73ffffffffffffffffffffffffffffffffffffffff16610fd0610ba3565b73ffffffffffffffffffffffffffffffffffffffff161461102f57610ff36110f6565b6040517f118cdaa70000000000000000000000000000000000000000000000000000000081526004016110269190612086565b60405180910390fd5b565b60008061103d83611819565b9050600073ffffffffffffffffffffffffffffffffffffffff168173ffffffffffffffffffffffffffffffffffffffff16036110b057826040517f7e2732890000000000000000000000000000000000000000000000000000000081526004016110a791906122d4565b60405180910390fd5b80915050919050565b60006004600083815260200190815260200160002060009054906101000a900473ffffffffffffffffffffffffffffffffffffffff169050919050565b600033905090565b61110b8383836001611856565b505050565b60008061111c84611819565b9050600073ffffffffffffffffffffffffffffffffffffffff168373ffffffffffffffffffffffffffffffffffffffff161461115e5761115d818486611a1b565b5b600073ffffffffffffffffffffffffffffffffffffffff168173ffffffffffffffffffffffffffffffffffffffff16146111ef576111a0600085600080611856565b6001600360008373ffffffffffffffffffffffffffffffffffffffff1673ffffffffffffffffffffffffffffffffffffffff168152602001908152602001600020600082825403925050819055505b600073ffffffffffffffffffffffffffffffffffffffff168573ffffffffffffffffffffffffffffffffffffffff1614611272576001600360008773ffffffffffffffffffffffffffffffffffffffff1673ffffffffffffffffffffffffffffffffffffffff168152602001908152602001600020600082825401925050819055505b846002600086815260200190815260200160002060006101000a81548173ffffffffffffffffffffffffffffffffffffffff021916908373ffffffffffffffffffffffffffffffffffffffff160217905550838573ffffffffffffffffffffffffffffffffffffffff168273ffffffffffffffffffffffffffffffffffffffff167fddf252ad1be2c89b69c2b068fc378daa952ba7f163c4a11628f55a4df523b3ef60405160405180910390a4809150509392505050565b611344828260405180602001604052806000815250611adf565b5050565b6000600660009054906101000a900473ffffffffffffffffffffffffffffffffffffffff16905081600660006101000a81548173ffffffffffffffffffffffffffffffffffffffff021916908373ffffffffffffffffffffffffffffffffffffffff1602179055508173ffffffffffffffffffffffffffffffffffffffff168173ffffffffffffffffffffffffffffffffffffffff167f8be0079c531659141344cd1fd0a4f28419497f9722a3daafe3b4186f6b6457e060405160405180910390a35050565b600073ffffffffffffffffffffffffffffffffffffffff168273ffffffffffffffffffffffffffffffffffffffff160361147f57816040517f5b08ba180000000000000000000000000000000000000000000000000000000081526004016114769190612086565b60405180910390fd5b80600560008573ffffffffffffffffffffffffffffffffffffffff1673ffffffffffffffffffffffffffffffffffffffff16815260200190815260200160002060008473ffffffffffffffffffffffffffffffffffffffff1673ffffffffffffffffffffffffffffffffffffffff16815260200190815260200160002060006101000a81548160ff0219169083151502179055508173ffffffffffffffffffffffffffffffffffffffff168373ffffffffffffffffffffffffffffffffffffffff167f17307eab39ab6107e8899845ad3d59bd9653f200f220920489ca2b5937696c31836040516115709190611ebc565b60405180910390a3505050565b60008373ffffffffffffffffffffffffffffffffffffffff163b111561172e578273ffffffffffffffffffffffffffffffffffffffff1663150b7a026115c16110f6565b8685856040518563ffffffff1660e01b81526004016115e394939291906129ca565b6020604051808303816000875af192505050801561161f57506040513d601f19601f8201168201806040525081019061161c9190612a2b565b60015b6116a3573d806000811461164f576040519150601f19603f3d011682016040523d82523d6000602084013e611654565b606091505b50600081510361169b57836040517f64a0ae920000000000000000000000000000000000000000000000000000000081526004016116929190612086565b60405180910390fd5b805181602001fd5b63150b7a0260e01b7bffffffffffffffffffffffffffffffffffffffffffffffffffffffff1916817bffffffffffffffffffffffffffffffffffffffffffffffffffffffff19161461172c57836040517f64a0ae920000000000000000000000000000000000000000000000000000000081526004016117239190612086565b60405180910390fd5b505b50505050565b606060405180602001604052806000815250905090565b60606000600161175a84611afb565b01905060008167ffffffffffffffff8111156117795761177861213e565b5b6040519080825280601f01601f1916602001820160405280156117ab5781602001600182028036833780820191505090505b509050600082602001820190505b60011561180e578080600190039150507f3031323334353637383961626364656600000000000000000000000000000000600a86061a8153600a858161180257611801612a58565b5b049450600085036117b9575b819350505050919050565b60006002600083815260200190815260200160002060009054906101000a900473ffffffffffffffffffffffffffffffffffffffff169050919050565b808061188f5750600073ffffffffffffffffffffffffffffffffffffffff168273ffffffffffffffffffffffffffffffffffffffff1614155b156119c357600061189f84611031565b9050600073ffffffffffffffffffffffffffffffffffffffff168373ffffffffffffffffffffffffffffffffffffffff161415801561190a57508273ffffffffffffffffffffffffffffffffffffffff168173ffffffffffffffffffffffffffffffffffffffff1614155b801561191d575061191b8184610e26565b155b1561195f57826040517fa9fbf51f0000000000000000000000000000000000000000000000000000000081526004016119569190612086565b60405180910390fd5b81156119c157838573ffffffffffffffffffffffffffffffffffffffff168273ffffffffffffffffffffffffffffffffffffffff167f8c5be1e5ebec7d5bd14f71427d1e84f3dd0314c0f7b2291e5b200ac8c7c3b92560405160405180910390a45b505b836004600085815260200190815260200160002060006101000a81548173ffffffffffffffffffffffffffffffffffffffff021916908373ffffffffffffffffffffffffffffffffffffffff16021790555050505050565b611a26838383611c4e565b611ada57600073ffffffffffffffffffffffffffffffffffffffff168373ffffffffffffffffffffffffffffffffffffffff1603611a9b57806040517f7e273289000000000000000000000000000000000000000000000000000000008152600401611a9291906122d4565b60405180910390fd5b81816040517f177e802f000000000000000000000000000000000000000000000000000000008152600401611ad1929190612a87565b60405180910390fd5b505050565b611ae98383611d0f565b611af6600084848461157d565b505050565b600080600090507a184f03e93ff9f4daa797ed6e38ed64bf6a1f0100000000000000008310611b59577a184f03e93ff9f4daa797ed6e38ed64bf6a1f0100000000000000008381611b4f57611b4e612a58565b5b0492506040810190505b6d04ee2d6d415b85acef81000000008310611b96576d04ee2d6d415b85acef81000000008381611b8c57611b8b612a58565b5b0492506020810190505b662386f26fc100008310611bc557662386f26fc100008381611bbb57611bba612a58565b5b0492506010810190505b6305f5e1008310611bee576305f5e1008381611be457611be3612a58565b5b0492506008810190505b6127108310611c13576127108381611c0957611c08612a58565b5b0492506004810190505b60648310611c365760648381611c2c57611c2b612a58565b5b0492506002810190505b600a8310611c45576001810190505b80915050919050565b60008073ffffffffffffffffffffffffffffffffffffffff168373ffffffffffffffffffffffffffffffffffffffff1614158015611d0657508273ffffffffffffffffffffffffffffffffffffffff168473ffffffffffffffffffffffffffffffffffffffff161480611cc75750611cc68484610e26565b5b80611d0557508273ffffffffffffffffffffffffffffffffffffffff16611ced836110b9565b73ffffffffffffffffffffffffffffffffffffffff16145b5b90509392505050565b600073ffffffffffffffffffffffffffffffffffffffff168273ffffffffffffffffffffffffffffffffffffffff1603611d815760006040517f64a0ae92000000000000000000000000000000000000000000000000000000008152600401611d789190612086565b60405180910390fd5b6000611d8f83836000611110565b9050600073ffffffffffffffffffffffffffffffffffffffff168173ffffffffffffffffffffffffffffffffffffffff1614611e035760006040517f73c6ac6e000000000000000000000000000000000000000000000000000000008152600401611dfa9190612086565b60405180910390fd5b505050565b6000604051905090565b600080fd5b600080fd5b60007fffffffff0000000000000000000000000000000000000000000000000000000082169050919050565b611e5181611e1c565b8114611e5c57600080fd5b50565b600081359050611e6e81611e48565b92915050565b600060208284031215611e8a57611e89611e12565b5b6000611e9884828501611e5f565b91505092915050565b60008115159050919050565b611eb681611ea1565b82525050565b6000602082019050611ed16000830184611ead565b92915050565b600073ffffffffffffffffffffffffffffffffffffffff82169050919050565b6000611f0282611ed7565b9050919050565b611f1281611ef7565b8114611f1d57600080fd5b50565b600081359050611f2f81611f09565b92915050565b600060208284031215611f4b57611f4a611e12565b5b6000611f5984828501611f20565b91505092915050565b600081519050919050565b600082825260208201905092915050565b60005b83811015611f9c578082015181840152602081019050611f81565b60008484015250505050565b6000601f19601f8301169050919050565b6000611fc482611f62565b611fce8185611f6d565b9350611fde818560208601611f7e565b611fe781611fa8565b840191505092915050565b6000602082019050818103600083015261200c8184611fb9565b905092915050565b6000819050919050565b61202781612014565b811461203257600080fd5b50565b6000813590506120448161201e565b92915050565b6000602082840312156120605761205f611e12565b5b600061206e84828501612035565b91505092915050565b61208081611ef7565b82525050565b600060208201905061209b6000830184612077565b92915050565b600080604083850312156120b8576120b7611e12565b5b60006120c685828601611f20565b92505060206120d785828601612035565b9150509250929050565b6000806000606084860312156120fa576120f9611e12565b5b600061210886828701611f20565b935050602061211986828701611f20565b925050604061212a86828701612035565b9150509250925092565b600080fd5b600080fd5b7f4e487b7100000000000000000000000000000000000000000000000000000000600052604160045260246000fd5b61217682611fa8565b810181811067ffffffffffffffff821117156121955761219461213e565b5b80604052505050565b60006121a8611e08565b90506121b4828261216d565b919050565b600067ffffffffffffffff8211156121d4576121d361213e565b5b6121dd82611fa8565b9050602081019050919050565b82818337600083830152505050565b600061220c612207846121b9565b61219e565b90508281526020810184848401111561222857612227612139565b5b6122338482856121ea565b509392505050565b600082601f8301126122505761224f612134565b5b81356122608482602086016121f9565b91505092915050565b600080604083850312156122805761227f611e12565b5b600061228e85828601611f20565b925050602083013567ffffffffffffffff8111156122af576122ae611e17565b5b6122bb8582860161223b565b9150509250929050565b6122ce81612014565b82525050565b60006020820190506122e960008301846122c5565b92915050565b6122f881611ea1565b811461230357600080fd5b50565b600081359050612315816122ef565b92915050565b6000806040838503121561233257612331611e12565b5b600061234085828601611f20565b925050602061235185828601612306565b9150509250929050565b600067ffffffffffffffff8211156123765761237561213e565b5b61237f82611fa8565b9050602081019050919050565b600061239f61239a8461235b565b61219e565b9050828152602081018484840111156123bb576123ba612139565b5b6123c68482856121ea565b509392505050565b600082601f8301126123e3576123e2612134565b5b81356123f384826020860161238c565b91505092915050565b6000806000806080858703121561241657612415611e12565b5b600061242487828801611f20565b945050602061243587828801611f20565b935050604061244687828801612035565b925050606085013567ffffffffffffffff81111561246757612466611e17565b5b612473878288016123ce565b91505092959194509250565b60006080820190506124946000830187612077565b6124a16020830186612077565b81810360408301526124b38185611fb9565b90506124c26060830184611ead565b95945050505050565b600080604083850312156124e2576124e1611e12565b5b60006124f085828601611f20565b925050602061250185828601611f20565b9150509250929050565b7f4e487b7100000000000000000000000000000000000000000000000000000000600052602260045260246000fd5b6000600282049050600182168061255257607f821691505b6020821081036125655761256461250b565b5b50919050565b60006060820190506125806000830186612077565b61258d60208301856122c5565b61259a6040830184612077565b949350505050565b7f4f6e6c7920617574686f72697a6564206e6f7461726965732063616e2070657260008201527f666f726d207468697320616374696f6e00000000000000000000000000000000602082015250565b60006125fe603083611f6d565b9150612609826125a2565b604082019050919050565b6000602082019050818103600083015261262d816125f1565b9050919050565b60008190508160005260206000209050919050565b60006020601f8301049050919050565b600082821b905092915050565b6000600883026126967fffffffffffffffffffffffffffffffffffffffffffffffffffffffffffffffff82612659565b6126a08683612659565b95508019841693508086168417925050509392505050565b6000819050919050565b60006126dd6126d86126d384612014565b6126b8565b612014565b9050919050565b6000819050919050565b6126f7836126c2565b61270b612703826126e4565b848454612666565b825550505050565b600090565b612720612713565b61272b8184846126ee565b505050565b5b8181101561274f57612744600082612718565b600181019050612731565b5050565b601f8211156127945761276581612634565b61276e84612649565b8101602085101561277d578190505b61279161278985612649565b830182612730565b50505b505050565b600082821c905092915050565b60006127b760001984600802612799565b1980831691505092915050565b60006127d083836127a6565b9150826002028217905092915050565b6127e982611f62565b67ffffffffffffffff8111156128025761280161213e565b5b61280c825461253a565b612817828285612753565b600060209050601f83116001811461284a5760008415612838578287015190505b61284285826127c4565b8655506128aa565b601f19841661285886612634565b60005b828110156128805784890151825560018201915060208501945060208101905061285b565b8683101561289d5784890151612899601f8916826127a6565b8355505b6001600288020188555050505b505050505050565b7f4e487b7100000000000000000000000000000000000000000000000000000000600052601160045260246000fd5b60006128ec82612014565b91506128f783612014565b925082820190508082111561290f5761290e6128b2565b5b92915050565b600081905092915050565b600061292b82611f62565b6129358185612915565b9350612945818560208601611f7e565b80840191505092915050565b600061295d8285612920565b91506129698284612920565b91508190509392505050565b600081519050919050565b600082825260208201905092915050565b600061299c82612975565b6129a68185612980565b93506129b6818560208601611f7e565b6129bf81611fa8565b840191505092915050565b60006080820190506129df6000830187612077565b6129ec6020830186612077565b6129f960408301856122c5565b8181036060830152612a0b8184612991565b905095945050505050565b600081519050612a2581611e48565b92915050565b600060208284031215612a4157612a40611e12565b5b6000612a4f84828501612a16565b91505092915050565b7f4e487b7100000000000000000000000000000000000000000000000000000000600052601260045260246000fd5b6000604082019050612a9c6000830185612077565b612aa960208301846122c5565b939250505056fea264697066735822122045423b0475a696f0aa951f146df89dab2804077012a4da4b8c88a0142944b4a864736f6c63430008180033",
  "linkReferences": {},
  "deployedLinkReferences": {}
}