{"abi":[{"type":"constructor","inputs":[],"stateMutability":"nonpayable"},{"type":"function","name":"approve","inputs":[{"name":"to","type":"address","internalType":"address"},{"name":"tokenId","type":"uint256","internalType":"uint256"}],"outputs":[],"stateMutability":"nonpayable"},{"type":"function","name":"balanceOf","inputs":[{"name":"owner","type":"address","internalType":"address"}],"outputs":[{"name":"","type":"uint256","internalType":"uint256"}],"stateMutability":"view"},{"type":"function","name":"getApproved","inputs":[{"name":"tokenId","type":"uint256","internalType":"uint256"}],"outputs":[{"name":"","type":"address","internalType":"address"}],"stateMutability":"view"},{"type":"function","name":"getMetadata","inputs":[{"name":"tokenId","type":"uint256","internalType":"uint256"}],"outputs":[{"name":"","type":"tuple","internalType":"struct Metadata","components":[{"name":"verifier","type":"address","internalType":"address"},{"name":"visibility","type":"uint8","internalType":"uint8"},{"name":"timestamp","type":"uint256","internalType":"uint256"},{"name":"documentHash","type":"bytes32","internalType":"bytes32"},{"name":"keywords","type":"bytes32[]","internalType":"bytes32[]"},{"name":"documentType","type":"string","internalType":"string"},{"name":"uri","type":"string","internalType":"string"}]}],"stateMutability":"view"},{"type":"function","name":"initialize","inputs":[{"name":"initialOwner","type":"address","internalType":"address"}],"outputs":[],"stateMutability":"nonpayable"},{"type":"function","name":"isApprovedForAll","inputs":[{"name":"owner","type":"address","internalType":"address"},{"name":"operator","type":"address","internalType":"address"}],"outputs":[{"name":"","type":"bool","internalType":"bool"}],"stateMutability":"view"},{"type":"function","name":"metadata","inputs":[{"name":"","type":"uint256","internalType":"uint256"}],"outputs":[{"name":"verifier","type":"address","internalType":"address"},{"name":"visibility","type":"uint8","internalType":"uint8"},{"name":"timestamp","type":"uint256","internalType":"uint256"},{"name":"documentHash","type":"bytes32","internalType":"bytes32"},{"name":"documentType","type":"string","internalType":"string"},{"name":"uri","type":"string","internalType":"string"}],"stateMutability":"view"},{"type":"function","name":"mint","inputs":[{"name":"verifier","type":"address","internalType":"address"},{"name":"visibility","type":"uint8","internalType":"uint8"},{"name":"documentHash","type":"bytes32","internalType":"bytes32"},{"name":"keywords","type":"bytes32[]","internalType":"bytes32[]"},{"name":"documentType","type":"string","internalType":"string"},{"name":"uri","type":"string","internalType":"string"}],"outputs":[],"stateMutability":"nonpayable"},{"type":"function","name":"name","inputs":[],"outputs":[{"name":"","type":"string","internalType":"string"}],"stateMutability":"view"},{"type":"function","name":"owner","inputs":[],"outputs":[{"name":"","type":"address","internalType":"address"}],"stateMutability":"view"},{"type":"function","name":"ownerOf","inputs":[{"name":"tokenId","type":"uint256","internalType":"uint256"}],"outputs":[{"name":"","type":"address","internalType":"address"}],"stateMutability":"view"},{"type":"function","name":"ptrTokenId","inputs":[],"outputs":[{"name":"","type":"uint256","internalType":"uint256"}],"stateMutability":"view"},{"type":"function","name":"renounceOwnership","inputs":[],"outputs":[],"stateMutability":"nonpayable"},{"type":"function","name":"router","inputs":[],"outputs":[{"name":"","type":"address","internalType":"address"}],"stateMutability":"view"},{"type":"function","name":"safeTransferFrom","inputs":[{"name":"from","type":"address","internalType":"address"},{"name":"to","type":"address","internalType":"address"},{"name":"tokenId","type":"uint256","internalType":"uint256"}],"outputs":[],"stateMutability":"nonpayable"},{"type":"function","name":"safeTransferFrom","inputs":[{"name":"from","type":"address","internalType":"address"},{"name":"to","type":"address","internalType":"address"},{"name":"tokenId","type":"uint256","internalType":"uint256"},{"name":"data","type":"bytes","internalType":"bytes"}],"outputs":[],"stateMutability":"nonpayable"},{"type":"function","name":"setApprovalForAll","inputs":[{"name":"operator","type":"address","internalType":"address"},{"name":"approved","type":"bool","internalType":"bool"}],"outputs":[],"stateMutability":"nonpayable"},{"type":"function","name":"supportsInterface","inputs":[{"name":"interfaceId","type":"bytes4","internalType":"bytes4"}],"outputs":[{"name":"","type":"bool","internalType":"bool"}],"stateMutability":"view"},{"type":"function","name":"symbol","inputs":[],"outputs":[{"name":"","type":"string","internalType":"string"}],"stateMutability":"view"},{"type":"function","name":"tokenURI","inputs":[{"name":"tokenId","type":"uint256","internalType":"uint256"}],"outputs":[{"name":"","type":"string","internalType":"string"}],"stateMutability":"view"},{"type":"function","name":"transferFrom","inputs":[{"name":"from","type":"address","internalType":"address"},{"name":"to","type":"address","internalType":"address"},{"name":"tokenId","type":"uint256","internalType":"uint256"}],"outputs":[],"stateMutability":"nonpayable"},{"type":"function","name":"transferOwnership","inputs":[{"name":"newOwner","type":"address","internalType":"address"}],"outputs":[],"stateMutability":"nonpayable"},{"type":"event","name":"Approval","inputs":[{"name":"owner","type":"address","indexed":true,"internalType":"address"},{"name":"approved","type":"address","indexed":true,"internalType":"address"},{"name":"tokenId","type":"uint256","indexed":true,"internalType":"uint256"}],"anonymous":false},{"type":"event","name":"ApprovalForAll","inputs":[{"name":"owner","type":"address","indexed":true,"internalType":"address"},{"name":"operator","type":"address","indexed":true,"internalType":"address"},{"name":"approved","type":"bool","indexed":false,"internalType":"bool"}],"anonymous":false},{"type":"event","name":"Initialized","inputs":[{"name":"version","type":"uint64","indexed":false,"internalType":"uint64"}],"anonymous":false},{"type":"event","name":"OwnershipTransferred","inputs":[{"name":"previousOwner","type":"address","indexed":true,"internalType":"address"},{"name":"newOwner","type":"address","indexed":true,"internalType":"address"}],"anonymous":false},{"type":"event","name":"Transfer","inputs":[{"name":"from","type":"address","indexed":true,"internalType":"address"},{"name":"to","type":"address","indexed":true,"internalType":"address"},{"name":"tokenId","type":"uint256","indexed":true,"internalType":"uint256"}],"anonymous":false},{"type":"error","name":"ERC721IncorrectOwner","inputs":[{"name":"sender","type":"address","internalType":"address"},{"name":"tokenId","type":"uint256","internalType":"uint256"},{"name":"owner","type":"address","internalType":"address"}]},{"type":"error","name":"ERC721InsufficientApproval","inputs":[{"name":"operator","type":"address","internalType":"address"},{"name":"tokenId","type":"uint256","internalType":"uint256"}]},{"type":"error","name":"ERC721InvalidApprover","inputs":[{"name":"approver","type":"address","internalType":"address"}]},{"type":"error","name":"ERC721InvalidOperator","inputs":[{"name":"operator","type":"address","internalType":"address"}]},{"type":"error","name":"ERC721InvalidOwner","inputs":[{"name":"owner","type":"address","internalType":"address"}]},{"type":"error","name":"ERC721InvalidReceiver","inputs":[{"name":"receiver","type":"address","internalType":"address"}]},{"type":"error","name":"ERC721InvalidSender","inputs":[{"name":"sender","type":"address","internalType":"address"}]},{"type":"error","name":"ERC721NonexistentToken","inputs":[{"name":"tokenId","type":"uint256","internalType":"uint256"}]},{"type":"error","name":"InvalidInitialization","inputs":[]},{"type":"error","name":"NotInitializing","inputs":[]},{"type":"error","name":"OwnableInvalidOwner","inputs":[{"name":"owner","type":"address","internalType":"address"}]},{"type":"error","name":"OwnableUnauthorizedAccount","inputs":[{"name":"account","type":"address","internalType":"address"}]},{"type":"error","name":"TransferOwnershipNotAllowed","inputs":[]},{"type":"error","name":"Unauthorized","inputs":[]}],"bytecode":{"object":"0x6080604052348015600f57600080fd5b506016601a565b60ca565b7ff0c57e16840df040f15088dc2f81fe391c3923bec73e23a9662efc9c229c6a00805468010000000000000000900460ff161560695760405163f92ee8a960e01b815260040160405180910390fd5b80546001600160401b039081161460c75780546001600160401b0319166001600160401b0390811782556040519081527fc7f505b2f371ae2175ee4913f4499e1f2633a7b5936321eed1cdaeb6115181d29060200160405180910390a15b50565b611c5a806100d96000396000f3fe608060405234801561001057600080fd5b50600436106101425760003560e01c806395d89b41116100b8578063c87b56dd1161007c578063c87b56dd146102a2578063e3684e39146102b5578063e985e9c5146102da578063ea4ba56b146102ed578063f2fde38b146102f6578063f887ea401461030957600080fd5b806395d89b4114610241578063a22cb46514610249578063a574cea41461025c578063b88d4fde1461027c578063c4d66de81461028f57600080fd5b806342842e0e1161010a57806342842e0e146101d75780636352211e146101ea57806370a08231146101fd578063715018a61461021e5780637340ba41146102265780638da5cb5b1461023957600080fd5b806301ffc9a71461014757806306fdde031461016f578063081812fc14610184578063095ea7b3146101af57806323b872dd146101c4575b600080fd5b61015a61015536600461152b565b61031c565b60405190151581526020015b60405180910390f35b61017761036e565b6040516101669190611595565b6101976101923660046115a8565b610412565b6040516001600160a01b039091168152602001610166565b6101c26101bd3660046115dd565b610427565b005b6101c26101d2366004611607565b610436565b6101c26101e5366004611607565b6104c6565b6101976101f83660046115a8565b6104e6565b61021061020b366004611643565b6104f1565b604051908152602001610166565b6101c261054d565b6101c261023436600461179d565b610561565b610197610681565b6101776106af565b6101c2610257366004611857565b6106ee565b61026f61026a3660046115a8565b6106f9565b60405161016691906118cf565b6101c261028a366004611964565b610911565b6101c261029d366004611643565b610928565b6101776102b03660046115a8565b610a94565b6102c86102c33660046115a8565b610b39565b604051610166969594939291906119e0565b61015a6102e8366004611a35565b610c8e565b61021060005481565b6101c2610304366004611643565b610cdb565b600154610197906001600160a01b031681565b60006001600160e01b031982166380ac58cd60e01b148061034d57506001600160e01b03198216635b5e139f60e01b145b8061036857506301ffc9a760e01b6001600160e01b03198316145b92915050565b600080516020611c05833981519152805460609190819061038e90611a68565b80601f01602080910402602001604051908101604052809291908181526020018280546103ba90611a68565b80156104075780601f106103dc57610100808354040283529160200191610407565b820191906000526020600020905b8154815290600101906020018083116103ea57829003601f168201915b505050505091505090565b600061041d82610d19565b5061036882610d51565b610432828233610d8b565b5050565b6001600160a01b03821661046557604051633250574960e11b8152600060048201526024015b60405180910390fd5b6000610472838333610d98565b9050836001600160a01b0316816001600160a01b0316146104c0576040516364283d7b60e01b81526001600160a01b038086166004830152602482018490528216604482015260640161045c565b50505050565b6104e183838360405180602001604052806000815250610911565b505050565b600061036882610d19565b6000600080516020611c058339815191526001600160a01b03831661052c576040516322718ad960e21b81526000600482015260240161045c565b6001600160a01b039092166000908152600390920160205250604090205490565b610555610dea565b61055f6000610e1c565b565b6001546001600160a01b0316331461058b576040516282b42960e81b815260040160405180910390fd5b6040805160e0810182526001600160a01b03808916825260ff808916602080850191825242858701908152606086018b8152608087018b815260a088018b905260c088018a90526000805481526002808652999020885181549651909716600160a01b026001600160a81b031990961696909716959095179390931785555160018501559051948301949094555180519293919261062f92600385019201906114b5565b5060a082015160048201906106449082611aea565b5060c082015160058201906106599082611aea565b50905050610670610668610681565b600054610e56565b505060008054600101905550505050565b7f9016d09d72d40fdae2fd8ceac6b6234c7706214fd39c1cd1e609a0528c199300546001600160a01b031690565b7f80bb2b638cc20bc4d0a60d66940f3ab4a00c1d7b313497ca82fb0b4ab00793018054606091600080516020611c058339815191529161038e90611a68565b610432338383610ebb565b6107486040518060e0016040528060006001600160a01b03168152602001600060ff16815260200160008152602001600080191681526020016060815260200160608152602001606081525090565b600082815260026020818152604092839020835160e08101855281546001600160a01b0381168252600160a01b900460ff16818401526001820154818601529281015460608401526003810180548551818502810185019096528086529394919360808601938301828280156107dd57602002820191906000526020600020905b8154815260200190600101908083116107c9575b505050505081526020016004820180546107f690611a68565b80601f016020809104026020016040519081016040528092919081815260200182805461082290611a68565b801561086f5780601f106108445761010080835404028352916020019161086f565b820191906000526020600020905b81548152906001019060200180831161085257829003601f168201915b5050505050815260200160058201805461088890611a68565b80601f01602080910402602001604051908101604052809291908181526020018280546108b490611a68565b80156109015780601f106108d657610100808354040283529160200191610901565b820191906000526020600020905b8154815290600101906020018083116108e457829003601f168201915b5050505050815250509050919050565b61091c848484610436565b6104c084848484610f6c565b7ff0c57e16840df040f15088dc2f81fe391c3923bec73e23a9662efc9c229c6a008054600160401b810460ff16159067ffffffffffffffff1660008115801561096e5750825b905060008267ffffffffffffffff16600114801561098b5750303b155b905081158015610999575080155b156109b75760405163f92ee8a960e01b815260040160405180910390fd5b845467ffffffffffffffff1916600117855583156109e157845460ff60401b1916600160401b1785555b610a286040518060400160405280600b81526020016a14d958dd5c9955985d5b1d60aa1b8152506040518060400160405280600281526020016129ab60f11b815250611095565b600180546001600160a01b03191633178155600055610a4686610e1c565b8315610a8c57845460ff60401b19168555604051600181527fc7f505b2f371ae2175ee4913f4499e1f2633a7b5936321eed1cdaeb6115181d29060200160405180910390a15b505050505050565b6000818152600260205260409020600501805460609190610ab490611a68565b80601f0160208091040260200160405190810160405280929190818152602001828054610ae090611a68565b8015610b2d5780601f10610b0257610100808354040283529160200191610b2d565b820191906000526020600020905b815481529060010190602001808311610b1057829003601f168201915b50505050509050919050565b600260208190526000918252604090912080546001820154928201546004830180546001600160a01b03841695600160a01b90940460ff16949190610b7d90611a68565b80601f0160208091040260200160405190810160405280929190818152602001828054610ba990611a68565b8015610bf65780601f10610bcb57610100808354040283529160200191610bf6565b820191906000526020600020905b815481529060010190602001808311610bd957829003601f168201915b505050505090806005018054610c0b90611a68565b80601f0160208091040260200160405190810160405280929190818152602001828054610c3790611a68565b8015610c845780601f10610c5957610100808354040283529160200191610c84565b820191906000526020600020905b815481529060010190602001808311610c6757829003601f168201915b5050505050905086565b6001600160a01b0391821660009081527f80bb2b638cc20bc4d0a60d66940f3ab4a00c1d7b313497ca82fb0b4ab00793056020908152604080832093909416825291909152205460ff1690565b610ce3610dea565b6001600160a01b038116610d0d57604051631e4fbdf760e01b81526000600482015260240161045c565b610d1681610e1c565b50565b600080610d25836110a7565b90506001600160a01b03811661036857604051637e27328960e01b81526004810184905260240161045c565b60009081527f80bb2b638cc20bc4d0a60d66940f3ab4a00c1d7b313497ca82fb0b4ab007930460205260409020546001600160a01b031690565b6104e183838360016110e1565b60006001600160a01b03841615801590610dba57506001600160a01b03821615155b15610dd7576040516282b42960e81b815260040160405180910390fd5b610de28484846111f7565b949350505050565b33610df3610681565b6001600160a01b03161461055f5760405163118cdaa760e01b815233600482015260240161045c565b6000610e26610681565b6001600160a01b031614610e4d5760405163f92f588160e01b815260040160405180910390fd5b610d1681611301565b6001600160a01b038216610e8057604051633250574960e11b81526000600482015260240161045c565b6000610e8e83836000610d98565b90506001600160a01b038116156104e1576040516339e3563760e11b81526000600482015260240161045c565b600080516020611c058339815191526001600160a01b038316610efc57604051630b61174360e31b81526001600160a01b038416600482015260240161045c565b6001600160a01b038481166000818152600584016020908152604080832094881680845294825291829020805460ff191687151590811790915591519182527f17307eab39ab6107e8899845ad3d59bd9653f200f220920489ca2b5937696c31910160405180910390a350505050565b6001600160a01b0383163b156104c057604051630a85bd0160e11b81526001600160a01b0384169063150b7a0290610fae903390889087908790600401611baa565b6020604051808303816000875af1925050508015610fe9575060408051601f3d908101601f19168201909252610fe691810190611be7565b60015b611052573d808015611017576040519150601f19603f3d011682016040523d82523d6000602084013e61101c565b606091505b50805160000361104a57604051633250574960e11b81526001600160a01b038516600482015260240161045c565b805181602001fd5b6001600160e01b03198116630a85bd0160e11b1461108e57604051633250574960e11b81526001600160a01b038516600482015260240161045c565b5050505050565b61109d611372565b61043282826113bb565b60009081527f80bb2b638cc20bc4d0a60d66940f3ab4a00c1d7b313497ca82fb0b4ab007930260205260409020546001600160a01b031690565b600080516020611c05833981519152818061110457506001600160a01b03831615155b156111c657600061111485610d19565b90506001600160a01b038416158015906111405750836001600160a01b0316816001600160a01b031614155b801561115357506111518185610c8e565b155b1561117c5760405163a9fbf51f60e01b81526001600160a01b038516600482015260240161045c565b82156111c45784866001600160a01b0316826001600160a01b03167f8c5be1e5ebec7d5bd14f71427d1e84f3dd0314c0f7b2291e5b200ac8c7c3b92560405160405180910390a45b505b600093845260040160205250506040902080546001600160a01b0319166001600160a01b0392909216919091179055565b6000600080516020611c0583398151915281611212856110a7565b90506001600160a01b0384161561122e5761122e8185876113ec565b6001600160a01b0381161561126e5761124b6000866000806110e1565b6001600160a01b0381166000908152600383016020526040902080546000190190555b6001600160a01b0386161561129f576001600160a01b03861660009081526003830160205260409020805460010190555b600085815260028301602052604080822080546001600160a01b0319166001600160a01b038a811691821790925591518893918516917fddf252ad1be2c89b69c2b068fc378daa952ba7f163c4a11628f55a4df523b3ef91a495945050505050565b7f9016d09d72d40fdae2fd8ceac6b6234c7706214fd39c1cd1e609a0528c19930080546001600160a01b031981166001600160a01b03848116918217845560405192169182907f8be0079c531659141344cd1fd0a4f28419497f9722a3daafe3b4186f6b6457e090600090a3505050565b7ff0c57e16840df040f15088dc2f81fe391c3923bec73e23a9662efc9c229c6a0054600160401b900460ff1661055f57604051631afcd79f60e31b815260040160405180910390fd5b6113c3611372565b600080516020611c05833981519152806113dd8482611aea565b50600181016104c08382611aea565b6113f7838383611450565b6104e1576001600160a01b03831661142557604051637e27328960e01b81526004810182905260240161045c565b60405163177e802f60e01b81526001600160a01b03831660048201526024810182905260440161045c565b60006001600160a01b03831615801590610de25750826001600160a01b0316846001600160a01b0316148061148a575061148a8484610c8e565b80610de25750826001600160a01b03166114a383610d51565b6001600160a01b031614949350505050565b8280548282559060005260206000209081019282156114f0579160200282015b828111156114f05782518255916020019190600101906114d5565b506114fc929150611500565b5090565b5b808211156114fc5760008155600101611501565b6001600160e01b031981168114610d1657600080fd5b60006020828403121561153d57600080fd5b813561154881611515565b9392505050565b6000815180845260005b8181101561157557602081850181015186830182015201611559565b506000602082860101526020601f19601f83011685010191505092915050565b602081526000611548602083018461154f565b6000602082840312156115ba57600080fd5b5035919050565b80356001600160a01b03811681146115d857600080fd5b919050565b600080604083850312156115f057600080fd5b6115f9836115c1565b946020939093013593505050565b60008060006060848603121561161c57600080fd5b611625846115c1565b9250611633602085016115c1565b9150604084013590509250925092565b60006020828403121561165557600080fd5b611548826115c1565b634e487b7160e01b600052604160045260246000fd5b604051601f8201601f1916810167ffffffffffffffff8111828210171561169d5761169d61165e565b604052919050565b600082601f8301126116b657600080fd5b8135602067ffffffffffffffff8211156116d2576116d261165e565b8160051b6116e1828201611674565b92835284810182019282810190878511156116fb57600080fd5b83870192505b8483101561171a57823582529183019190830190611701565b979650505050505050565b600067ffffffffffffffff83111561173f5761173f61165e565b611752601f8401601f1916602001611674565b905082815283838301111561176657600080fd5b828260208301376000602084830101529392505050565b600082601f83011261178e57600080fd5b61154883833560208501611725565b60008060008060008060c087890312156117b657600080fd5b6117bf876115c1565b9550602087013560ff811681146117d557600080fd5b945060408701359350606087013567ffffffffffffffff808211156117f957600080fd5b6118058a838b016116a5565b9450608089013591508082111561181b57600080fd5b6118278a838b0161177d565b935060a089013591508082111561183d57600080fd5b5061184a89828a0161177d565b9150509295509295509295565b6000806040838503121561186a57600080fd5b611873836115c1565b91506020830135801515811461188857600080fd5b809150509250929050565b60008151808452602080850194506020840160005b838110156118c4578151875295820195908201906001016118a8565b509495945050505050565b6020815260018060a01b03825116602082015260ff602083015116604082015260408201516060820152606082015160808201526000608083015160e060a084015261191f610100840182611893565b905060a0840151601f19808584030160c086015261193d838361154f565b925060c08601519150808584030160e08601525061195b828261154f565b95945050505050565b6000806000806080858703121561197a57600080fd5b611983856115c1565b9350611991602086016115c1565b925060408501359150606085013567ffffffffffffffff8111156119b457600080fd5b8501601f810187136119c557600080fd5b6119d487823560208401611725565b91505092959194509250565b60018060a01b038716815260ff8616602082015284604082015283606082015260c060808201526000611a1660c083018561154f565b82810360a0840152611a28818561154f565b9998505050505050505050565b60008060408385031215611a4857600080fd5b611a51836115c1565b9150611a5f602084016115c1565b90509250929050565b600181811c90821680611a7c57607f821691505b602082108103611a9c57634e487b7160e01b600052602260045260246000fd5b50919050565b601f8211156104e1576000816000526020600020601f850160051c81016020861015611acb5750805b601f850160051c820191505b81811015610a8c57828155600101611ad7565b815167ffffffffffffffff811115611b0457611b0461165e565b611b1881611b128454611a68565b84611aa2565b602080601f831160018114611b4d5760008415611b355750858301515b600019600386901b1c1916600185901b178555610a8c565b600085815260208120601f198616915b82811015611b7c57888601518255948401946001909101908401611b5d565b5085821015611b9a5787850151600019600388901b60f8161c191681555b5050505050600190811b01905550565b6001600160a01b0385811682528416602082015260408101839052608060608201819052600090611bdd9083018461154f565b9695505050505050565b600060208284031215611bf957600080fd5b81516115488161151556fe80bb2b638cc20bc4d0a60d66940f3ab4a00c1d7b313497ca82fb0b4ab0079300a2646970667358221220e8a552854290a01a1f4d87c368d908f005807a1758daf6f2464799c2d080eed864736f6c63430008190033","linkReferences":{}},"methodIdentifiers":{"approve(address,uint256)":"095ea7b3","balanceOf(address)":"70a08231","getApproved(uint256)":"081812fc","getMetadata(uint256)":"a574cea4","initialize(address)":"c4d66de8","isApprovedForAll(address,address)":"e985e9c5","metadata(uint256)":"e3684e39","mint(address,uint8,bytes32,bytes32[],string,string)":"7340ba41","name()":"06fdde03","owner()":"8da5cb5b","ownerOf(uint256)":"6352211e","ptrTokenId()":"ea4ba56b","renounceOwnership()":"715018a6","router()":"f887ea40","safeTransferFrom(address,address,uint256)":"42842e0e","safeTransferFrom(address,address,uint256,bytes)":"b88d4fde","setApprovalForAll(address,bool)":"a22cb465","supportsInterface(bytes4)":"01ffc9a7","symbol()":"95d89b41","tokenURI(uint256)":"c87b56dd","transferFrom(address,address,uint256)":"23b872dd","transferOwnership(address)":"f2fde38b"},"id":44}