{"abi":[{"type":"constructor","inputs":[{"name":"_factory","type":"address","internalType":"address"}],"stateMutability":"nonpayable"},{"type":"function","name":"owner","inputs":[],"outputs":[{"name":"","type":"address","internalType":"address"}],"stateMutability":"view"},{"type":"function","name":"renounceOwnership","inputs":[],"outputs":[],"stateMutability":"nonpayable"},{"type":"function","name":"sendVerifiedDocumentCrossChain","inputs":[{"name":"owner","type":"address","internalType":"address"},{"name":"tokenId","type":"uint256","internalType":"uint256"},{"name":"destinationChainSelector","type":"uint64","internalType":"uint64"},{"name":"receiver","type":"address","internalType":"address"}],"outputs":[{"name":"messageId","type":"bytes32","internalType":"bytes32"}],"stateMutability":"nonpayable"},{"type":"function","name":"transferOwnership","inputs":[{"name":"newOwner","type":"address","internalType":"address"}],"outputs":[],"stateMutability":"nonpayable"},{"type":"event","name":"MessageSent","inputs":[{"name":"messageId","type":"bytes32","indexed":true,"internalType":"bytes32"},{"name":"destinationChainSelector","type":"uint64","indexed":true,"internalType":"uint64"},{"name":"receiver","type":"address","indexed":false,"internalType":"address"},{"name":"datas","type":"bytes","indexed":false,"internalType":"bytes"},{"name":"feeToken","type":"address","indexed":false,"internalType":"address"},{"name":"fees","type":"uint256","indexed":false,"internalType":"uint256"}],"anonymous":false},{"type":"event","name":"OwnershipTransferred","inputs":[{"name":"previousOwner","type":"address","indexed":true,"internalType":"address"},{"name":"newOwner","type":"address","indexed":true,"internalType":"address"}],"anonymous":false},{"type":"error","name":"OwnableInvalidOwner","inputs":[{"name":"owner","type":"address","internalType":"address"}]},{"type":"error","name":"OwnableUnauthorizedAccount","inputs":[{"name":"account","type":"address","internalType":"address"}]},{"type":"error","name":"Unauthorized","inputs":[]}],"bytecode":{"object":"0x60a060405234801561001057600080fd5b50604051610d0b380380610d0b83398101604081905261002f91610108565b338061005557604051631e4fbdf760e01b81526000600482015260240160405180910390fd5b61005e816100b8565b506001600160a01b0316608052600180546001600160a01b0319908116739c32fcb86bf0f4a1a8921a9fe46de3198bb884b21790915560028054909116730fd9e8d3af1aaee056eb9e802c3a762a667b1904179055610138565b600080546001600160a01b038381166001600160a01b0319831681178455604051919092169283917f8be0079c531659141344cd1fd0a4f28419497f9722a3daafe3b4186f6b6457e09190a35050565b60006020828403121561011a57600080fd5b81516001600160a01b038116811461013157600080fd5b9392505050565b608051610bb9610152600039600060e70152610bb96000f3fe608060405234801561001057600080fd5b506004361061004c5760003560e01c8063715018a614610051578063748ed4341461005b5780638da5cb5b14610081578063f2fde38b1461009c575b600080fd5b6100596100af565b005b61006e610069366004610605565b6100c3565b6040519081526020015b60405180910390f35b6000546040516001600160a01b039091168152602001610078565b6100596100aa366004610665565b610530565b6100b7610573565b6100c160006105a0565b565b60405163ddc354d360e01b81526001600160a01b03858116600483015260009182917f0000000000000000000000000000000000000000000000000000000000000000169063ddc354d390602401602060405180830381865afa15801561012e573d6000803e3d6000fd5b505050506040513d601f19601f820116820180604052508101906101529190610699565b90506001600160a01b03811661017a576040516282b42960e81b815260040160405180910390fd5b60405163295d33a960e21b8152600481018690526000906001600160a01b0383169063a574cea490602401600060405180830381865afa1580156101c2573d6000803e3d6000fd5b505050506040513d6000823e601f3d908101601f191682016040526101ea9190810190610847565b905060008787836040516020016102039392919061099a565b60408051601f1981840301815260a0830182526001600160a01b03881660c0808501919091528251808503909101815260e08401835283526020808401829052825160008082529181018452919450929182019083610284565b604080518082019091526000808252602082015281526020019060019003908161025d5790505b5081526002546001600160a01b031660208083019190915260408051808301825262030d4090819052815160248082019290925282518082039092018252604401825291820180516001600160e01b03166397a657c960e01b179052909101526001546040516320487ded60e01b81529192506000916001600160a01b03909116906320487ded9061031c908b908690600401610a37565b602060405180830381865afa158015610339573d6000803e3d6000fd5b505050506040513d601f19601f8201168201806040525081019061035d9190610b14565b6002546040516323b872dd60e01b8152336004820152306024820152604481018390529192506001600160a01b0316906323b872dd906064016020604051808303816000875af11580156103b5573d6000803e3d6000fd5b505050506040513d601f19601f820116820180604052508101906103d99190610b2d565b5060025460015460405163095ea7b360e01b81526001600160a01b0391821660048201526024810184905291169063095ea7b3906044016020604051808303816000875af115801561042f573d6000803e3d6000fd5b505050506040513d601f19601f820116820180604052508101906104539190610b2d565b506001546040516396f4e9f960e01b81526001600160a01b03909116906396f4e9f990610486908b908690600401610a37565b6020604051808303816000875af11580156104a5573d6000803e3d6000fd5b505050506040513d601f19601f820116820180604052508101906104c99190610b14565b60025460405191975067ffffffffffffffff8a169188917f3d8a9f055772202d2c3c1fddbad930d3dbe588d8692b75b84cee0719462829119161051b918c9189916001600160a01b0316908890610b4f565b60405180910390a35050505050949350505050565b610538610573565b6001600160a01b03811661056757604051631e4fbdf760e01b8152600060048201526024015b60405180910390fd5b610570816105a0565b50565b6000546001600160a01b031633146100c15760405163118cdaa760e01b815233600482015260240161055e565b600080546001600160a01b038381166001600160a01b0319831681178455604051919092169283917f8be0079c531659141344cd1fd0a4f28419497f9722a3daafe3b4186f6b6457e09190a35050565b6001600160a01b038116811461057057600080fd5b6000806000806080858703121561061b57600080fd5b8435610626816105f0565b935060208501359250604085013567ffffffffffffffff8116811461064a57600080fd5b9150606085013561065a816105f0565b939692955090935050565b60006020828403121561067757600080fd5b8135610682816105f0565b9392505050565b8051610694816105f0565b919050565b6000602082840312156106ab57600080fd5b8151610682816105f0565b634e487b7160e01b600052604160045260246000fd5b60405160e0810167ffffffffffffffff811182821017156106ef576106ef6106b6565b60405290565b604051601f8201601f1916810167ffffffffffffffff8111828210171561071e5761071e6106b6565b604052919050565b805160ff8116811461069457600080fd5b600082601f83011261074857600080fd5b8151602067ffffffffffffffff821115610764576107646106b6565b8160051b6107738282016106f5565b928352848101820192828101908785111561078d57600080fd5b83870192505b848310156107ac57825182529183019190830190610793565b979650505050505050565b60005b838110156107d25781810151838201526020016107ba565b50506000910152565b600082601f8301126107ec57600080fd5b815167ffffffffffffffff811115610806576108066106b6565b610819601f8201601f19166020016106f5565b81815284602083860101111561082e57600080fd5b61083f8260208301602087016107b7565b949350505050565b60006020828403121561085957600080fd5b815167ffffffffffffffff8082111561087157600080fd5b9083019060e0828603121561088557600080fd5b61088d6106cc565b61089683610689565b81526108a460208401610726565b602082015260408301516040820152606083015160608201526080830151828111156108cf57600080fd5b6108db87828601610737565b60808301525060a0830151828111156108f357600080fd5b6108ff878286016107db565b60a08301525060c08301518281111561091757600080fd5b610923878286016107db565b60c08301525095945050505050565b60008151808452602080850194506020840160005b8381101561096357815187529582019590820190600101610947565b509495945050505050565b600081518084526109868160208601602086016107b7565b601f01601f19169290920160200192915050565b600060018060a01b038086168352846020840152606060408401528084511660608401525060ff6020840151166080830152604083015160a0830152606083015160c0830152608083015160e0808401526109f9610140840182610932565b905060a0840151605f198085840301610100860152610a18838361096e565b925060c086015191508085840301610120860152506107ac828261096e565b6000604067ffffffffffffffff851683526020604081850152845160a06040860152610a6660e086018261096e565b905081860151603f1980878403016060880152610a83838361096e565b6040890151888203830160808a01528051808352908601945060009350908501905b80841015610ad757845180516001600160a01b0316835286015186830152938501936001939093019290860190610aa5565b5060608901516001600160a01b031660a08901526080890151888203830160c08a01529550610b06818761096e565b9a9950505050505050505050565b600060208284031215610b2657600080fd5b5051919050565b600060208284031215610b3f57600080fd5b8151801515811461068257600080fd5b600060018060a01b03808716835260806020840152610b71608084018761096e565b9416604083015250606001529291505056fea2646970667358221220c2cad7a81862aae705e04248f46c13ce3320d7066bb49d2af2a02a60a66b940964736f6c63430008190033","linkReferences":{}},"methodIdentifiers":{"owner()":"8da5cb5b","renounceOwnership()":"715018a6","sendVerifiedDocumentCrossChain(address,uint256,uint64,address)":"748ed434","transferOwnership(address)":"f2fde38b"},"id":47}