{"abi":[{"type":"constructor","inputs":[{"name":"router","type":"address","internalType":"address"},{"name":"sender","type":"address","internalType":"address"}],"stateMutability":"nonpayable"},{"type":"function","name":"ccipReceive","inputs":[{"name":"message","type":"tuple","internalType":"struct Client.Any2EVMMessage","components":[{"name":"messageId","type":"bytes32","internalType":"bytes32"},{"name":"sourceChainSelector","type":"uint64","internalType":"uint64"},{"name":"sender","type":"bytes","internalType":"bytes"},{"name":"data","type":"bytes","internalType":"bytes"},{"name":"destTokenAmounts","type":"tuple[]","internalType":"struct Client.EVMTokenAmount[]","components":[{"name":"token","type":"address","internalType":"address"},{"name":"amount","type":"uint256","internalType":"uint256"}]}]}],"outputs":[],"stateMutability":"nonpayable"},{"type":"function","name":"datas","inputs":[{"name":"","type":"address","internalType":"address"},{"name":"","type":"uint256","internalType":"uint256"}],"outputs":[{"name":"verifier","type":"address","internalType":"address"},{"name":"visibility","type":"uint8","internalType":"uint8"},{"name":"timestamp","type":"uint256","internalType":"uint256"},{"name":"documentHash","type":"bytes32","internalType":"bytes32"},{"name":"documentType","type":"string","internalType":"string"},{"name":"uri","type":"string","internalType":"string"}],"stateMutability":"view"},{"type":"function","name":"getDocumentData","inputs":[{"name":"user","type":"address","internalType":"address"},{"name":"tokenId","type":"uint256","internalType":"uint256"}],"outputs":[{"name":"","type":"tuple","internalType":"struct Metadata","components":[{"name":"verifier","type":"address","internalType":"address"},{"name":"visibility","type":"uint8","internalType":"uint8"},{"name":"timestamp","type":"uint256","internalType":"uint256"},{"name":"documentHash","type":"bytes32","internalType":"bytes32"},{"name":"keywords","type":"bytes32[]","internalType":"bytes32[]"},{"name":"documentType","type":"string","internalType":"string"},{"name":"uri","type":"string","internalType":"string"}]}],"stateMutability":"view"},{"type":"function","name":"getRouter","inputs":[],"outputs":[{"name":"","type":"address","internalType":"address"}],"stateMutability":"view"},{"type":"function","name":"secureVaultSender","inputs":[],"outputs":[{"name":"","type":"address","internalType":"address"}],"stateMutability":"view"},{"type":"function","name":"supportsInterface","inputs":[{"name":"interfaceId","type":"bytes4","internalType":"bytes4"}],"outputs":[{"name":"","type":"bool","internalType":"bool"}],"stateMutability":"pure"},{"type":"function","name":"verifyDocumentHash","inputs":[{"name":"user","type":"address","internalType":"address"},{"name":"tokenId","type":"uint256","internalType":"uint256"},{"name":"documentHash","type":"bytes32","internalType":"bytes32"}],"outputs":[{"name":"","type":"bool","internalType":"bool"}],"stateMutability":"view"},{"type":"event","name":"MessageReceived","inputs":[{"name":"messageId","type":"bytes32","indexed":true,"internalType":"bytes32"},{"name":"sourceChainSelector","type":"uint64","indexed":true,"internalType":"uint64"},{"name":"sender","type":"address","indexed":false,"internalType":"address"},{"name":"data","type":"bytes","indexed":false,"internalType":"bytes"}],"anonymous":false},{"type":"error","name":"InvalidRouter","inputs":[{"name":"router","type":"address","internalType":"address"}]},{"type":"error","name":"InvalidSender","inputs":[]}],"bytecode":{"object":"0x60a060405234801561001057600080fd5b5060405161111938038061111983398101604081905261002f916100a6565b816001600160a01b03811661005e576040516335fdcccd60e21b81526000600482015260240160405180910390fd5b6001600160a01b03908116608052600080546001600160a01b03191692909116919091179055506100d9565b80516001600160a01b03811681146100a157600080fd5b919050565b600080604083850312156100b957600080fd5b6100c28361008a565b91506100d06020840161008a565b90509250929050565b60805161101e6100fb6000396000818161014b015261032d015261101e6000f3fe608060405234801561001057600080fd5b506004361061007d5760003560e01c806385572ffb1161005b57806385572ffb146100fa5780639d65e1821461010f578063b0f479a114610149578063c66c1ffc1461016f57600080fd5b806301ffc9a71461008257806358cc9817146100aa5780637ac8526c146100cf575b600080fd5b61009561009036600461077d565b61018f565b60405190151581526020015b60405180910390f35b6100bd6100b83660046107c3565b6101c6565b6040516100a19695949392919061083f565b6000546100e2906001600160a01b031681565b6040516001600160a01b0390911681526020016100a1565b61010d610108366004610894565b610322565b005b61009561011d3660046108cf565b6001600160a01b0392909216600090815260016020908152604080832093835292905220600201541490565b7f00000000000000000000000000000000000000000000000000000000000000006100e2565b61018261017d3660046107c3565b610385565b6040516100a19190610940565b60006001600160e01b031982166385572ffb60e01b14806101c057506001600160e01b031982166301ffc9a760e01b145b92915050565b6001602081815260009384526040808520909152918352912080549181015460028201546004830180546001600160a01b03861695600160a01b900460ff16949190610211906109d5565b80601f016020809104026020016040519081016040528092919081815260200182805461023d906109d5565b801561028a5780601f1061025f5761010080835404028352916020019161028a565b820191906000526020600020905b81548152906001019060200180831161026d57829003601f168201915b50505050509080600501805461029f906109d5565b80601f01602080910402602001604051908101604052809291908181526020018280546102cb906109d5565b80156103185780601f106102ed57610100808354040283529160200191610318565b820191906000526020600020905b8154815290600101906020018083116102fb57829003601f168201915b5050505050905086565b336001600160a01b037f00000000000000000000000000000000000000000000000000000000000000001614610371576040516335fdcccd60e21b815233600482015260240160405180910390fd5b61038261037d82610c17565b6105ab565b50565b6103d46040518060e0016040528060006001600160a01b03168152602001600060ff16815260200160008152602001600080191681526020016060815260200160608152602001606081525090565b6001600160a01b038381166000908152600160208181526040808420878552825292839020835160e08101855281549586168152600160a01b90950460ff168583015291820154848401526002820154606085015260038201805484518184028101840190955280855292936080860193909283018282801561047657602002820191906000526020600020905b815481526020019060010190808311610462575b5050505050815260200160048201805461048f906109d5565b80601f01602080910402602001604051908101604052809291908181526020018280546104bb906109d5565b80156105085780601f106104dd57610100808354040283529160200191610508565b820191906000526020600020905b8154815290600101906020018083116104eb57829003601f168201915b50505050508152602001600582018054610521906109d5565b80601f016020809104026020016040519081016040528092919081815260200182805461054d906109d5565b801561059a5780601f1061056f5761010080835404028352916020019161059a565b820191906000526020600020905b81548152906001019060200180831161057d57829003601f168201915b505050505081525050905092915050565b600081604001518060200190518101906105c59190610cc4565b6000549091506001600160a01b038083169116146105f657604051636edaef2f60e11b815260040160405180910390fd5b600080600084606001518060200190518101906106139190610da9565b6001600160a01b038084166000908152600160208181526040808420878552825292839020855181548388015160ff16600160a01b026001600160a81b03199091169190961617949094178455918401519083015560608301516002830155608083015180519598509396509194508493909261069792600385019291019061071d565b5060a082015160048201906106ac9082610f04565b5060c082015160058201906106c19082610f04565b50905050846020015167ffffffffffffffff1685600001517f4add8c8902d6fd412fed639bf652d936405bbb837c732a202153c91e89ebfaa786886060015160405161070e929190610fc4565b60405180910390a35050505050565b828054828255906000526020600020908101928215610758579160200282015b8281111561075857825182559160200191906001019061073d565b50610764929150610768565b5090565b5b808211156107645760008155600101610769565b60006020828403121561078f57600080fd5b81356001600160e01b0319811681146107a757600080fd5b9392505050565b6001600160a01b038116811461038257600080fd5b600080604083850312156107d657600080fd5b82356107e1816107ae565b946020939093013593505050565b60005b8381101561080a5781810151838201526020016107f2565b50506000910152565b6000815180845261082b8160208601602086016107ef565b601f01601f19169290920160200192915050565b60018060a01b038716815260ff8616602082015284604082015283606082015260c06080820152600061087560c0830185610813565b82810360a08401526108878185610813565b9998505050505050505050565b6000602082840312156108a657600080fd5b813567ffffffffffffffff8111156108bd57600080fd5b820160a081850312156107a757600080fd5b6000806000606084860312156108e457600080fd5b83356108ef816107ae565b95602085013595506040909401359392505050565b60008151808452602080850194506020840160005b8381101561093557815187529582019590820190600101610919565b509495945050505050565b6020815260018060a01b03825116602082015260ff602083015116604082015260408201516060820152606082015160808201526000608083015160e060a0840152610990610100840182610904565b905060a0840151601f19808584030160c08601526109ae8383610813565b925060c08601519150808584030160e0860152506109cc8282610813565b95945050505050565b600181811c908216806109e957607f821691505b602082108103610a0957634e487b7160e01b600052602260045260246000fd5b50919050565b634e487b7160e01b600052604160045260246000fd5b6040805190810167ffffffffffffffff81118282101715610a4857610a48610a0f565b60405290565b60405160a0810167ffffffffffffffff81118282101715610a4857610a48610a0f565b60405160e0810167ffffffffffffffff81118282101715610a4857610a48610a0f565b604051601f8201601f1916810167ffffffffffffffff81118282101715610abd57610abd610a0f565b604052919050565b803567ffffffffffffffff81168114610add57600080fd5b919050565b600067ffffffffffffffff821115610afc57610afc610a0f565b50601f01601f191660200190565b600082601f830112610b1b57600080fd5b8135610b2e610b2982610ae2565b610a94565b818152846020838601011115610b4357600080fd5b816020850160208301376000918101602001919091529392505050565b600067ffffffffffffffff821115610b7a57610b7a610a0f565b5060051b60200190565b600082601f830112610b9557600080fd5b81356020610ba5610b2983610b60565b82815260069290921b84018101918181019086841115610bc457600080fd5b8286015b84811015610c0c5760408189031215610be15760008081fd5b610be9610a25565b8135610bf4816107ae565b81528185013585820152835291830191604001610bc8565b509695505050505050565b600060a08236031215610c2957600080fd5b610c31610a4e565b82358152610c4160208401610ac5565b6020820152604083013567ffffffffffffffff80821115610c6157600080fd5b610c6d36838701610b0a565b60408401526060850135915080821115610c8657600080fd5b610c9236838701610b0a565b60608401526080850135915080821115610cab57600080fd5b50610cb836828601610b84565b60808301525092915050565b600060208284031215610cd657600080fd5b81516107a7816107ae565b8051610add816107ae565b805160ff81168114610add57600080fd5b600082601f830112610d0e57600080fd5b81516020610d1e610b2983610b60565b8083825260208201915060208460051b870101935086841115610d4057600080fd5b602086015b84811015610c0c5780518352918301918301610d45565b600082601f830112610d6d57600080fd5b8151610d7b610b2982610ae2565b818152846020838601011115610d9057600080fd5b610da18260208301602087016107ef565b949350505050565b600080600060608486031215610dbe57600080fd5b8351610dc9816107ae565b60208501516040860151919450925067ffffffffffffffff80821115610dee57600080fd5b9085019060e08288031215610e0257600080fd5b610e0a610a71565b610e1383610ce1565b8152610e2160208401610cec565b60208201526040830151604082015260608301516060820152608083015182811115610e4c57600080fd5b610e5889828601610cfd565b60808301525060a083015182811115610e7057600080fd5b610e7c89828601610d5c565b60a08301525060c083015182811115610e9457600080fd5b610ea089828601610d5c565b60c0830152508093505050509250925092565b601f821115610eff576000816000526020600020601f850160051c81016020861015610edc5750805b601f850160051c820191505b81811015610efb57828155600101610ee8565b5050505b505050565b815167ffffffffffffffff811115610f1e57610f1e610a0f565b610f3281610f2c84546109d5565b84610eb3565b602080601f831160018114610f675760008415610f4f5750858301515b600019600386901b1c1916600185901b178555610efb565b600085815260208120601f198616915b82811015610f9657888601518255948401946001909101908401610f77565b5085821015610fb45787850151600019600388901b60f8161c191681555b5050505050600190811b01905550565b6001600160a01b0383168152604060208201819052600090610da19083018461081356fea26469706673582212205b3f51fc134902c4a50f3df2312887491f3b6d6ccdd53d5a302039f174c4608764736f6c63430008190033","linkReferences":{}},"methodIdentifiers":{"ccipReceive((bytes32,uint64,bytes,bytes,(address,uint256)[]))":"85572ffb","datas(address,uint256)":"58cc9817","getDocumentData(address,uint256)":"c66c1ffc","getRouter()":"b0f479a1","secureVaultSender()":"7ac8526c","supportsInterface(bytes4)":"01ffc9a7","verifyDocumentHash(address,uint256,bytes32)":"9d65e182"},"id":46}